{
  "contractName": "ERC20d",
  "abi": [
    {
      "inputs": [],
      "payable": false,
      "stateMutability": "nonpayable",
      "type": "constructor"
    },
    {
      "anonymous": false,
      "inputs": [
        {
          "indexed": true,
          "name": "owner",
          "type": "address"
        },
        {
          "indexed": true,
          "name": "spender",
          "type": "address"
        },
        {
          "indexed": false,
          "name": "value",
          "type": "uint256"
        }
      ],
      "name": "Approval",
      "type": "event"
    },
    {
      "anonymous": false,
      "inputs": [
        {
          "indexed": true,
          "name": "from",
          "type": "address"
        },
        {
          "indexed": true,
          "name": "to",
          "type": "address"
        },
        {
          "indexed": false,
          "name": "value",
          "type": "uint256"
        }
      ],
      "name": "Transfer",
      "type": "event"
    },
    {
      "anonymous": false,
      "inputs": [
        {
          "indexed": false,
          "name": "vID",
          "type": "bytes32"
        },
        {
          "indexed": false,
          "name": "subject",
          "type": "bytes32"
        },
        {
          "indexed": false,
          "name": "choice",
          "type": "bytes32"
        },
        {
          "indexed": false,
          "name": "weight",
          "type": "uint256"
        }
      ],
      "name": "Vote",
      "type": "event"
    },
    {
      "anonymous": false,
      "inputs": [
        {
          "indexed": true,
          "name": "subject",
          "type": "address"
        },
        {
          "indexed": false,
          "name": "vID",
          "type": "bytes32"
        },
        {
          "indexed": false,
          "name": "block",
          "type": "uint256"
        }
      ],
      "name": "Neo",
      "type": "event"
    },
    {
      "anonymous": false,
      "inputs": [
        {
          "indexed": false,
          "name": "vID",
          "type": "bytes32"
        },
        {
          "indexed": false,
          "name": "reward",
          "type": "uint256"
        }
      ],
      "name": "Reward",
      "type": "event"
    },
    {
      "anonymous": false,
      "inputs": [
        {
          "indexed": false,
          "name": "vID",
          "type": "bytes32"
        },
        {
          "indexed": false,
          "name": "flux",
          "type": "bytes32"
        }
      ],
      "name": "Trust",
      "type": "event"
    },
    {
      "anonymous": false,
      "inputs": [
        {
          "indexed": true,
          "name": "staker",
          "type": "address"
        }
      ],
      "name": "Stake",
      "type": "event"
    },
    {
      "constant": false,
      "inputs": [],
      "name": "toggleStake",
      "outputs": [],
      "payable": false,
      "stateMutability": "nonpayable",
      "type": "function"
    },
    {
      "constant": false,
      "inputs": [
        {
          "name": "_identity",
          "type": "bytes32"
        }
      ],
      "name": "setIdentity",
      "outputs": [],
      "payable": false,
      "stateMutability": "nonpayable",
      "type": "function"
    },
    {
      "constant": true,
      "inputs": [],
      "name": "name",
      "outputs": [
        {
          "name": "",
          "type": "string"
        }
      ],
      "payable": false,
      "stateMutability": "view",
      "type": "function"
    },
    {
      "constant": true,
      "inputs": [],
      "name": "symbol",
      "outputs": [
        {
          "name": "",
          "type": "string"
        }
      ],
      "payable": false,
      "stateMutability": "view",
      "type": "function"
    },
    {
      "constant": true,
      "inputs": [],
      "name": "decimals",
      "outputs": [
        {
          "name": "",
          "type": "uint256"
        }
      ],
      "payable": false,
      "stateMutability": "view",
      "type": "function"
    },
    {
      "constant": true,
      "inputs": [],
      "name": "maxSupply",
      "outputs": [
        {
          "name": "",
          "type": "uint256"
        }
      ],
      "payable": false,
      "stateMutability": "view",
      "type": "function"
    },
    {
      "constant": true,
      "inputs": [],
      "name": "totalSupply",
      "outputs": [
        {
          "name": "",
          "type": "uint256"
        }
      ],
      "payable": false,
      "stateMutability": "view",
      "type": "function"
    },
    {
      "constant": true,
      "inputs": [
        {
          "name": "_id",
          "type": "bytes32"
        }
      ],
      "name": "isVoted",
      "outputs": [
        {
          "name": "",
          "type": "bool"
        }
      ],
      "payable": false,
      "stateMutability": "view",
      "type": "function"
    },
    {
      "constant": true,
      "inputs": [
        {
          "name": "_account",
          "type": "address"
        }
      ],
      "name": "isActive",
      "outputs": [
        {
          "name": "",
          "type": "bool"
        }
      ],
      "payable": false,
      "stateMutability": "view",
      "type": "function"
    },
    {
      "constant": true,
      "inputs": [
        {
          "name": "_account",
          "type": "address"
        }
      ],
      "name": "isStaking",
      "outputs": [
        {
          "name": "",
          "type": "bool"
        }
      ],
      "payable": false,
      "stateMutability": "view",
      "type": "function"
    },
    {
      "constant": true,
      "inputs": [
        {
          "name": "_owner",
          "type": "address"
        }
      ],
      "name": "balanceOf",
      "outputs": [
        {
          "name": "",
          "type": "uint256"
        }
      ],
      "payable": false,
      "stateMutability": "view",
      "type": "function"
    },
    {
      "constant": true,
      "inputs": [
        {
          "name": "_account",
          "type": "address"
        }
      ],
      "name": "getvID",
      "outputs": [
        {
          "name": "",
          "type": "bytes32"
        }
      ],
      "payable": false,
      "stateMutability": "view",
      "type": "function"
    },
    {
      "constant": true,
      "inputs": [
        {
          "name": "_id",
          "type": "bytes32"
        }
      ],
      "name": "getIdentity",
      "outputs": [
        {
          "name": "",
          "type": "bytes32"
        }
      ],
      "payable": false,
      "stateMutability": "view",
      "type": "function"
    },
    {
      "constant": true,
      "inputs": [
        {
          "name": "_id",
          "type": "bytes32"
        }
      ],
      "name": "getAddress",
      "outputs": [
        {
          "name": "",
          "type": "address"
        }
      ],
      "payable": false,
      "stateMutability": "view",
      "type": "function"
    },
    {
      "constant": true,
      "inputs": [
        {
          "name": "_id",
          "type": "bytes32"
        }
      ],
      "name": "trustLevel",
      "outputs": [
        {
          "name": "",
          "type": "uint256"
        }
      ],
      "payable": false,
      "stateMutability": "view",
      "type": "function"
    },
    {
      "constant": true,
      "inputs": [
        {
          "name": "_id",
          "type": "bytes32"
        }
      ],
      "name": "totalEvents",
      "outputs": [
        {
          "name": "",
          "type": "uint256"
        }
      ],
      "payable": false,
      "stateMutability": "view",
      "type": "function"
    },
    {
      "constant": true,
      "inputs": [
        {
          "name": "_id",
          "type": "bytes32"
        }
      ],
      "name": "totalVotes",
      "outputs": [
        {
          "name": "",
          "type": "uint256"
        }
      ],
      "payable": false,
      "stateMutability": "view",
      "type": "function"
    },
    {
      "constant": true,
      "inputs": [
        {
          "name": "_id",
          "type": "bytes32"
        }
      ],
      "name": "positiveVotes",
      "outputs": [
        {
          "name": "",
          "type": "uint256"
        }
      ],
      "payable": false,
      "stateMutability": "view",
      "type": "function"
    },
    {
      "constant": true,
      "inputs": [
        {
          "name": "_id",
          "type": "bytes32"
        }
      ],
      "name": "negativeVotes",
      "outputs": [
        {
          "name": "",
          "type": "uint256"
        }
      ],
      "payable": false,
      "stateMutability": "view",
      "type": "function"
    },
    {
      "constant": true,
      "inputs": [
        {
          "name": "_id",
          "type": "bytes32"
        }
      ],
      "name": "neutralVotes",
      "outputs": [
        {
          "name": "",
          "type": "uint256"
        }
      ],
      "payable": false,
      "stateMutability": "view",
      "type": "function"
    },
    {
      "constant": true,
      "inputs": [
        {
          "name": "_owner",
          "type": "address"
        },
        {
          "name": "_spender",
          "type": "address"
        }
      ],
      "name": "allowance",
      "outputs": [
        {
          "name": "",
          "type": "uint256"
        }
      ],
      "payable": false,
      "stateMutability": "view",
      "type": "function"
    },
    {
      "constant": false,
      "inputs": [
        {
          "name": "_to",
          "type": "address"
        },
        {
          "name": "_value",
          "type": "uint256"
        }
      ],
      "name": "transfer",
      "outputs": [
        {
          "name": "",
          "type": "bool"
        }
      ],
      "payable": false,
      "stateMutability": "nonpayable",
      "type": "function"
    },
    {
      "constant": false,
      "inputs": [
        {
          "name": "_spender",
          "type": "address"
        },
        {
          "name": "_value",
          "type": "uint256"
        }
      ],
      "name": "approve",
      "outputs": [
        {
          "name": "",
          "type": "bool"
        }
      ],
      "payable": false,
      "stateMutability": "nonpayable",
      "type": "function"
    },
    {
      "constant": false,
      "inputs": [
        {
          "name": "_from",
          "type": "address"
        },
        {
          "name": "_to",
          "type": "address"
        },
        {
          "name": "_value",
          "type": "uint256"
        }
      ],
      "name": "transferFrom",
      "outputs": [
        {
          "name": "",
          "type": "bool"
        }
      ],
      "payable": false,
      "stateMutability": "nonpayable",
      "type": "function"
    },
    {
      "constant": false,
      "inputs": [
        {
          "name": "_spender",
          "type": "address"
        },
        {
          "name": "_addedValue",
          "type": "uint256"
        }
      ],
      "name": "increaseAllowance",
      "outputs": [
        {
          "name": "",
          "type": "bool"
        }
      ],
      "payable": false,
      "stateMutability": "nonpayable",
      "type": "function"
    },
    {
      "constant": false,
      "inputs": [
        {
          "name": "_spender",
          "type": "address"
        },
        {
          "name": "_subtractedValue",
          "type": "uint256"
        }
      ],
      "name": "decreaseAllowance",
      "outputs": [
        {
          "name": "",
          "type": "bool"
        }
      ],
      "payable": false,
      "stateMutability": "nonpayable",
      "type": "function"
    },
    {
      "constant": false,
      "inputs": [
        {
          "name": "_id",
          "type": "bytes32"
        },
        {
          "name": "_account",
          "type": "address"
        },
        {
          "name": "_reward",
          "type": "uint256"
        }
      ],
      "name": "delegationReward",
      "outputs": [],
      "payable": false,
      "stateMutability": "nonpayable",
      "type": "function"
    },
    {
      "constant": false,
      "inputs": [
        {
          "name": "_id",
          "type": "bytes32"
        },
        {
          "name": "_subject",
          "type": "bytes32"
        },
        {
          "name": "_choice",
          "type": "bytes32"
        },
        {
          "name": "_weight",
          "type": "uint256"
        }
      ],
      "name": "delegationEvent",
      "outputs": [],
      "payable": false,
      "stateMutability": "nonpayable",
      "type": "function"
    },
    {
      "constant": false,
      "inputs": [
        {
          "name": "_id",
          "type": "bytes32"
        }
      ],
      "name": "increaseTrust",
      "outputs": [],
      "payable": false,
      "stateMutability": "nonpayable",
      "type": "function"
    },
    {
      "constant": false,
      "inputs": [
        {
          "name": "_id",
          "type": "bytes32"
        }
      ],
      "name": "decreaseTrust",
      "outputs": [],
      "payable": false,
      "stateMutability": "nonpayable",
      "type": "function"
    },
    {
      "constant": false,
      "inputs": [
        {
          "name": "_entity",
          "type": "address"
        }
      ],
      "name": "adminControl",
      "outputs": [],
      "payable": false,
      "stateMutability": "nonpayable",
      "type": "function"
    }
  ],
  "bytecode": "0x608060405233600960006101000a81548173ffffffffffffffffffffffffffffffffffffffff021916908373ffffffffffffffffffffffffffffffffffffffff1602179055506000600a60006101000a81548173ffffffffffffffffffffffffffffffffffffffff021916908373ffffffffffffffffffffffffffffffffffffffff1602179055503480156200009457600080fd5b506000620000ba6012600a0a640b3131fd80620001c460201b620026491790919060201c565b9050620000df6012600a0a640bc7feba00620001c460201b620026491790919060201c565b600c8190555062000119600960009054906101000a900473ffffffffffffffffffffffffffffffffffffffff16826200020260201b60201c565b6040518060400160405280600881526020017f56616c6964697479000000000000000000000000000000000000000000000000815250600e908051906020019062000166929190620005ef565b506040518060400160405280600481526020017f564c445900000000000000000000000000000000000000000000000000000000815250600f9080519060200190620001b4929190620005ef565b506012600d81905550506200069e565b600080831415620001d95760009050620001fc565b6000828402905082848281620001eb57fe5b0414620001f757600080fd5b809150505b92915050565b816200021481620003ba60201b60201c565b6200022b576200022a816200041060201b60201c565b5b600c546200024a83600b546200056d60201b620022e31790919060201c565b11156200025657600080fd5b600073ffffffffffffffffffffffffffffffffffffffff168373ffffffffffffffffffffffffffffffffffffffff1614156200029157600080fd5b620002ad82600b546200056d60201b620022e31790919060201c565b600b819055506200030c82600160008673ffffffffffffffffffffffffffffffffffffffff1673ffffffffffffffffffffffffffffffffffffffff168152602001908152602001600020546200056d60201b620022e31790919060201c565b600160008573ffffffffffffffffffffffffffffffffffffffff1673ffffffffffffffffffffffffffffffffffffffff168152602001908152602001600020819055508273ffffffffffffffffffffffffffffffffffffffff16600073ffffffffffffffffffffffffffffffffffffffff167fddf252ad1be2c89b69c2b068fc378daa952ba7f163c4a11628f55a4df523b3ef846040518082815260200191505060405180910390a3505050565b6000600560008373ffffffffffffffffffffffffffffffffffffffff1673ffffffffffffffffffffffffffffffffffffffff16815260200190815260200160002060009054906101000a900460ff169050919050565b600062000423826200058d60201b60201c565b90508173ffffffffffffffffffffffffffffffffffffffff167f51cd4b8c0225e44e87a9ab75b09c0c28e9383414d405e32028c7d578c332f6498243604051808381526020018281526020019250505060405180910390a26001600560008473ffffffffffffffffffffffffffffffffffffffff1673ffffffffffffffffffffffffffffffffffffffff16815260200190815260200160002060006101000a81548160ff021916908315150217905550816003600083815260200190815260200160002060006101000a81548173ffffffffffffffffffffffffffffffffffffffff021916908373ffffffffffffffffffffffffffffffffffffffff16021790555080600460008473ffffffffffffffffffffffffffffffffffffffff1673ffffffffffffffffffffffffffffffffffffffff168152602001908152602001600020819055505050565b6000808284019050838110156200058357600080fd5b8091505092915050565b6000807fffcc00000000000000000000000000000000000000000000000000000000000060001b9050657dee20b84b8863ffffffff431660a01b8417026effffffffffffffffffffffffffffff811660781b8118821791505080915050919050565b828054600181600116156101000203166002900490600052602060002090601f016020900481019282601f106200063257805160ff191683800117855562000663565b8280016001018555821562000663579182015b828111156200066257825182559160200191906001019062000645565b5b50905062000672919062000676565b5090565b6200069b91905b80821115620006975760008160009055506001016200067d565b5090565b90565b6126af80620006ae6000396000f3fe608060405234801561001057600080fd5b50600436106101e55760003560e01c806370a082311161010f578063a9059cbb116100a2578063d8f2be0411610071578063d8f2be04146109dc578063dd62ed3e14610a34578063f71b6a2514610aac578063fe13020814610aee576101e5565b8063a9059cbb146108d4578063b51b91271461093a578063cc7d4d531461097c578063d5abeb01146109be576101e5565b806395d89b41116100de57806395d89b411461074d5780639f8a13d7146107d0578063a457c2d71461082c578063a786721214610892576101e5565b806370a0823114610643578063778e96c01461069b5780637d7e938a146106dd5780638485af091461071f576101e5565b8063275b987d11610187578063395093511161015657806339509351146105495780636f49712b146105af5780636fae2a5b1461060b5780636fef433014610639576101e5565b8063275b987d14610459578063313ce567146104a557806333bf3577146104c357806338454bda14610507576101e5565b806318160ddd116101c357806318160ddd14610319578063198bfb551461033757806321f8a7211461036557806323b872dd146103d3576101e5565b806306fdde03146101ea578063095ea7b31461026d5780631163fd2d146102d3575b600080fd5b6101f2610b46565b6040518080602001828103825283818151815260200191508051906020019080838360005b83811015610232578082015181840152602081019050610217565b50505050905090810190601f16801561025f5780820380516001836020036101000a031916815260200191505b509250505060405180910390f35b6102b96004803603604081101561028357600080fd5b81019080803573ffffffffffffffffffffffffffffffffffffffff16906020019092919080359060200190929190505050610be8565b604051808215151515815260200191505060405180910390f35b6102ff600480360360208110156102e957600080fd5b8101908080359060200190929190505050610d9a565b604051808215151515815260200191505060405180910390f35b610321610dc4565b6040518082815260200191505060405180910390f35b6103636004803603602081101561034d57600080fd5b8101908080359060200190929190505050610dce565b005b6103916004803603602081101561037b57600080fd5b8101908080359060200190929190505050610e06565b604051808273ffffffffffffffffffffffffffffffffffffffff1673ffffffffffffffffffffffffffffffffffffffff16815260200191505060405180910390f35b61043f600480360360608110156103e957600080fd5b81019080803573ffffffffffffffffffffffffffffffffffffffff169060200190929190803573ffffffffffffffffffffffffffffffffffffffff16906020019092919080359060200190929190505050610e43565b604051808215151515815260200191505060405180910390f35b6104a36004803603608081101561046f57600080fd5b8101908080359060200190929190803590602001909291908035906020019092919080359060200190929190505050611048565b005b6104ad61133e565b6040518082815260200191505060405180910390f35b610505600480360360208110156104d957600080fd5b81019080803573ffffffffffffffffffffffffffffffffffffffff169060200190929190505050611348565b005b6105336004803603602081101561051d57600080fd5b81019080803590602001909291905050506113e6565b6040518082815260200191505060405180910390f35b6105956004803603604081101561055f57600080fd5b81019080803573ffffffffffffffffffffffffffffffffffffffff16906020019092919080359060200190929190505050611409565b604051808215151515815260200191505060405180910390f35b6105f1600480360360208110156105c557600080fd5b81019080803573ffffffffffffffffffffffffffffffffffffffff16906020019092919050505061163b565b604051808215151515815260200191505060405180910390f35b6106376004803603602081101561062157600080fd5b8101908080359060200190929190505050611691565b005b6106416117d6565b005b6106856004803603602081101561065957600080fd5b81019080803573ffffffffffffffffffffffffffffffffffffffff1690602001909291905050506118ec565b6040518082815260200191505060405180910390f35b6106c7600480360360208110156106b157600080fd5b8101908080359060200190929190505050611935565b6040518082815260200191505060405180910390f35b610709600480360360208110156106f357600080fd5b8101908080359060200190929190505050611958565b6040518082815260200191505060405180910390f35b61074b6004803603602081101561073557600080fd5b810190808035906020019092919050505061197b565b005b610755611ac0565b6040518080602001828103825283818151815260200191508051906020019080838360005b8381101561079557808201518184015260208101905061077a565b50505050905090810190601f1680156107c25780820380516001836020036101000a031916815260200191505b509250505060405180910390f35b610812600480360360208110156107e657600080fd5b81019080803573ffffffffffffffffffffffffffffffffffffffff169060200190929190505050611b62565b604051808215151515815260200191505060405180910390f35b6108786004803603604081101561084257600080fd5b81019080803573ffffffffffffffffffffffffffffffffffffffff16906020019092919080359060200190929190505050611bb8565b604051808215151515815260200191505060405180910390f35b6108be600480360360208110156108a857600080fd5b8101908080359060200190929190505050611dea565b6040518082815260200191505060405180910390f35b610920600480360360408110156108ea57600080fd5b81019080803573ffffffffffffffffffffffffffffffffffffffff16906020019092919080359060200190929190505050611e0a565b604051808215151515815260200191505060405180910390f35b6109666004803603602081101561095057600080fd5b8101908080359060200190929190505050611e21565b6040518082815260200191505060405180910390f35b6109a86004803603602081101561099257600080fd5b8101908080359060200190929190505050611e44565b6040518082815260200191505060405180910390f35b6109c6611e67565b6040518082815260200191505060405180910390f35b610a32600480360360608110156109f257600080fd5b8101908080359060200190929190803573ffffffffffffffffffffffffffffffffffffffff16906020019092919080359060200190929190505050611e71565b005b610a9660048036036040811015610a4a57600080fd5b81019080803573ffffffffffffffffffffffffffffffffffffffff169060200190929190803573ffffffffffffffffffffffffffffffffffffffff169060200190929190505050611fc1565b6040518082815260200191505060405180910390f35b610ad860048036036020811015610ac257600080fd5b8101908080359060200190929190505050612047565b6040518082815260200191505060405180910390f35b610b3060048036036020811015610b0457600080fd5b81019080803573ffffffffffffffffffffffffffffffffffffffff16906020019092919050505061206a565b6040518082815260200191505060405180910390f35b6060600e8054600181600116156101000203166002900480601f016020809104026020016040519081016040528092919081815260200182805460018160011615610100020316600290048015610bde5780601f10610bb357610100808354040283529160200191610bde565b820191906000526020600020905b815481529060010190602001808311610bc157829003601f168201915b5050505050905090565b6000806000803373ffffffffffffffffffffffffffffffffffffffff1673ffffffffffffffffffffffffffffffffffffffff16815260200190815260200160002060008573ffffffffffffffffffffffffffffffffffffffff1673ffffffffffffffffffffffffffffffffffffffff1681526020019081526020016000205414610c7157600080fd5b600073ffffffffffffffffffffffffffffffffffffffff168373ffffffffffffffffffffffffffffffffffffffff161415610cab57600080fd5b816000803373ffffffffffffffffffffffffffffffffffffffff1673ffffffffffffffffffffffffffffffffffffffff16815260200190815260200160002060008573ffffffffffffffffffffffffffffffffffffffff1673ffffffffffffffffffffffffffffffffffffffff168152602001908152602001600020819055508273ffffffffffffffffffffffffffffffffffffffff163373ffffffffffffffffffffffffffffffffffffffff167f8c5be1e5ebec7d5bd14f71427d1e84f3dd0314c0f7b2291e5b200ac8c7c3b925846040518082815260200191505060405180910390a36001905092915050565b60006008600083815260200190815260200160002060009054906101000a900460ff169050919050565b6000600b54905090565b610dd733611b62565b610de057600080fd5b8060026000610dee3361206a565b81526020019081526020016000206000018190555050565b60006003600083815260200190815260200160002060009054906101000a900473ffffffffffffffffffffffffffffffffffffffff169050919050565b6000610ed3826000808773ffffffffffffffffffffffffffffffffffffffff1673ffffffffffffffffffffffffffffffffffffffff16815260200190815260200160002060003373ffffffffffffffffffffffffffffffffffffffff1673ffffffffffffffffffffffffffffffffffffffff168152602001908152602001600020546120b390919063ffffffff16565b6000808673ffffffffffffffffffffffffffffffffffffffff1673ffffffffffffffffffffffffffffffffffffffff16815260200190815260200160002060003373ffffffffffffffffffffffffffffffffffffffff1673ffffffffffffffffffffffffffffffffffffffff16815260200190815260200160002081905550610f5d8484846120d3565b3373ffffffffffffffffffffffffffffffffffffffff168473ffffffffffffffffffffffffffffffffffffffff167f8c5be1e5ebec7d5bd14f71427d1e84f3dd0314c0f7b2291e5b200ac8c7c3b9256000808873ffffffffffffffffffffffffffffffffffffffff1673ffffffffffffffffffffffffffffffffffffffff16815260200190815260200160002060003373ffffffffffffffffffffffffffffffffffffffff1673ffffffffffffffffffffffffffffffffffffffff168152602001908152602001600020546040518082815260200191505060405180910390a3600190509392505050565b600a60009054906101000a900473ffffffffffffffffffffffffffffffffffffffff1673ffffffffffffffffffffffffffffffffffffffff163373ffffffffffffffffffffffffffffffffffffffff16146110a257600080fd5b7f506f73697469766500000000000000000000000000000000000000000000000060001b8214806110f557507f4e65757472616c0000000000000000000000000000000000000000000000000060001b82145b8061112257507f4e6567617469766500000000000000000000000000000000000000000000000060001b82145b61112b57600080fd5b61113c61113785610e06565b61163b565b61114557600080fd5b61114e84610d9a565b1561115857600080fd5b60016008600086815260200190815260200160002060006101000a81548160ff02191690831515021790555060006002600086815260200190815260200160002090507f506f73697469766500000000000000000000000000000000000000000000000060001b8314156111f1576111e1826111d387611935565b6122e390919063ffffffff16565b60001b816001018190555061129b565b7f4e65757472616c0000000000000000000000000000000000000000000000000060001b831415611247576112378261122987611e21565b6122e390919063ffffffff16565b60001b816003018190555061129a565b7f4e6567617469766500000000000000000000000000000000000000000000000060001b8314156112995761128d8261127f87612047565b6122e390919063ffffffff16565b60001b81600201819055505b5b5b6112b6826112a887611e44565b6122e390919063ffffffff16565b60001b81600501819055506112dd60016112cf87611958565b6122e390919063ffffffff16565b60001b81600401819055507ff9a0f45f5b0ee4b0e0d35afcbb2331423679429ed104c6f80a230e870867439a858585856040518085815260200184815260200183815260200182815260200194505050505060405180910390a15050505050565b6000600d54905090565b600960009054906101000a900473ffffffffffffffffffffffffffffffffffffffff1673ffffffffffffffffffffffffffffffffffffffff163373ffffffffffffffffffffffffffffffffffffffff16146113a257600080fd5b80600a60006101000a81548173ffffffffffffffffffffffffffffffffffffffff021916908373ffffffffffffffffffffffffffffffffffffffff16021790555050565b6000600260008381526020019081526020016000206006015460001c9050919050565b60008073ffffffffffffffffffffffffffffffffffffffff168373ffffffffffffffffffffffffffffffffffffffff16141561144457600080fd5b6114d2826000803373ffffffffffffffffffffffffffffffffffffffff1673ffffffffffffffffffffffffffffffffffffffff16815260200190815260200160002060008673ffffffffffffffffffffffffffffffffffffffff1673ffffffffffffffffffffffffffffffffffffffff168152602001908152602001600020546122e390919063ffffffff16565b6000803373ffffffffffffffffffffffffffffffffffffffff1673ffffffffffffffffffffffffffffffffffffffff16815260200190815260200160002060008573ffffffffffffffffffffffffffffffffffffffff1673ffffffffffffffffffffffffffffffffffffffff168152602001908152602001600020819055508273ffffffffffffffffffffffffffffffffffffffff163373ffffffffffffffffffffffffffffffffffffffff167f8c5be1e5ebec7d5bd14f71427d1e84f3dd0314c0f7b2291e5b200ac8c7c3b9256000803373ffffffffffffffffffffffffffffffffffffffff1673ffffffffffffffffffffffffffffffffffffffff16815260200190815260200160002060008773ffffffffffffffffffffffffffffffffffffffff1673ffffffffffffffffffffffffffffffffffffffff168152602001908152602001600020546040518082815260200191505060405180910390a36001905092915050565b6000600660008373ffffffffffffffffffffffffffffffffffffffff1673ffffffffffffffffffffffffffffffffffffffff16815260200190815260200160002060009054906101000a900460ff169050919050565b80436007600083815260200190815260200160002054106116b157600080fd5b600a60009054906101000a900473ffffffffffffffffffffffffffffffffffffffff1673ffffffffffffffffffffffffffffffffffffffff163373ffffffffffffffffffffffffffffffffffffffff161461170b57600080fd5b6117276001611719846113e6565b6122e390919063ffffffff16565b60001b60026000848152602001908152602001600020600601819055506117596103e8436122e390919063ffffffff16565b60076000848152602001908152602001600020819055507fb2e24cfbc75d5fb0929555ddbfbfa6cdcb0012c0efe56ceba8062989cf7835ef827f506f73697469766500000000000000000000000000000000000000000000000060001b604051808381526020018281526020019250505060405180910390a15050565b6117e76117e23361206a565b610d9a565b156117f157600080fd5b6117fa33611b62565b61180357600080fd5b600660003373ffffffffffffffffffffffffffffffffffffffff1673ffffffffffffffffffffffffffffffffffffffff16815260200190815260200160002060009054906101000a900460ff1615600660003373ffffffffffffffffffffffffffffffffffffffff1673ffffffffffffffffffffffffffffffffffffffff16815260200190815260200160002060006101000a81548160ff0219169083151502179055503373ffffffffffffffffffffffffffffffffffffffff167f8c000936ed6cc8b0c4218956860faac1c834b4ec96b46fa995aa58fc097fea1660405160405180910390a2565b6000600160008373ffffffffffffffffffffffffffffffffffffffff1673ffffffffffffffffffffffffffffffffffffffff168152602001908152602001600020549050919050565b6000600260008381526020019081526020016000206001015460001c9050919050565b6000600260008381526020019081526020016000206004015460001c9050919050565b804360076000838152602001908152602001600020541061199b57600080fd5b600a60009054906101000a900473ffffffffffffffffffffffffffffffffffffffff1673ffffffffffffffffffffffffffffffffffffffff163373ffffffffffffffffffffffffffffffffffffffff16146119f557600080fd5b611a116001611a03846113e6565b6122e390919063ffffffff16565b60001b6002600084815260200190815260200160002060060181905550611a436103e8436122e390919063ffffffff16565b60076000848152602001908152602001600020819055507fb2e24cfbc75d5fb0929555ddbfbfa6cdcb0012c0efe56ceba8062989cf7835ef827f4e6567617469766500000000000000000000000000000000000000000000000060001b604051808381526020018281526020019250505060405180910390a15050565b6060600f8054600181600116156101000203166002900480601f016020809104026020016040519081016040528092919081815260200182805460018160011615610100020316600290048015611b585780601f10611b2d57610100808354040283529160200191611b58565b820191906000526020600020905b815481529060010190602001808311611b3b57829003601f168201915b5050505050905090565b6000600560008373ffffffffffffffffffffffffffffffffffffffff1673ffffffffffffffffffffffffffffffffffffffff16815260200190815260200160002060009054906101000a900460ff169050919050565b60008073ffffffffffffffffffffffffffffffffffffffff168373ffffffffffffffffffffffffffffffffffffffff161415611bf357600080fd5b611c81826000803373ffffffffffffffffffffffffffffffffffffffff1673ffffffffffffffffffffffffffffffffffffffff16815260200190815260200160002060008673ffffffffffffffffffffffffffffffffffffffff1673ffffffffffffffffffffffffffffffffffffffff168152602001908152602001600020546120b390919063ffffffff16565b6000803373ffffffffffffffffffffffffffffffffffffffff1673ffffffffffffffffffffffffffffffffffffffff16815260200190815260200160002060008573ffffffffffffffffffffffffffffffffffffffff1673ffffffffffffffffffffffffffffffffffffffff168152602001908152602001600020819055508273ffffffffffffffffffffffffffffffffffffffff163373ffffffffffffffffffffffffffffffffffffffff167f8c5be1e5ebec7d5bd14f71427d1e84f3dd0314c0f7b2291e5b200ac8c7c3b9256000803373ffffffffffffffffffffffffffffffffffffffff1673ffffffffffffffffffffffffffffffffffffffff16815260200190815260200160002060008773ffffffffffffffffffffffffffffffffffffffff1673ffffffffffffffffffffffffffffffffffffffff168152602001908152602001600020546040518082815260200191505060405180910390a36001905092915050565b600060026000838152602001908152602001600020600001549050919050565b6000611e173384846120d3565b6001905092915050565b6000600260008381526020019081526020016000206003015460001c9050919050565b6000600260008381526020019081526020016000206005015460001c9050919050565b6000600c54905090565b600a60009054906101000a900473ffffffffffffffffffffffffffffffffffffffff1673ffffffffffffffffffffffffffffffffffffffff163373ffffffffffffffffffffffffffffffffffffffff1614611ecb57600080fd5b611ed48261163b565b611edd57600080fd5b611ee683610d9a565b611eef57600080fd5b60006008600085815260200190815260200160002060006101000a81548160ff0219169083151502179055506000600660008473ffffffffffffffffffffffffffffffffffffffff1673ffffffffffffffffffffffffffffffffffffffff16815260200190815260200160002060006101000a81548160ff021916908315150217905550611f7d8282612302565b7f7d7096f40a1fe42c26368b620dcd0eee1ac687fd1de7459e6838086d37572bda8382604051808381526020018281526020019250505060405180910390a1505050565b60008060008473ffffffffffffffffffffffffffffffffffffffff1673ffffffffffffffffffffffffffffffffffffffff16815260200190815260200160002060008373ffffffffffffffffffffffffffffffffffffffff1673ffffffffffffffffffffffffffffffffffffffff16815260200190815260200160002054905092915050565b6000600260008381526020019081526020016000206002015460001c9050919050565b6000600460008373ffffffffffffffffffffffffffffffffffffffff1673ffffffffffffffffffffffffffffffffffffffff168152602001908152602001600020549050919050565b6000828211156120c257600080fd5b600082840390508091505092915050565b82826120de8261163b565b1580156120f157506120ef8161163b565b155b6120fa57600080fd5b8361210481611b62565b6121125761211181612492565b5b600073ffffffffffffffffffffffffffffffffffffffff168573ffffffffffffffffffffffffffffffffffffffff16141561214c57600080fd5b61219e84600160008973ffffffffffffffffffffffffffffffffffffffff1673ffffffffffffffffffffffffffffffffffffffff168152602001908152602001600020546120b390919063ffffffff16565b600160008873ffffffffffffffffffffffffffffffffffffffff1673ffffffffffffffffffffffffffffffffffffffff1681526020019081526020016000208190555061223384600160008873ffffffffffffffffffffffffffffffffffffffff1673ffffffffffffffffffffffffffffffffffffffff168152602001908152602001600020546122e390919063ffffffff16565b600160008773ffffffffffffffffffffffffffffffffffffffff1673ffffffffffffffffffffffffffffffffffffffff168152602001908152602001600020819055508473ffffffffffffffffffffffffffffffffffffffff168673ffffffffffffffffffffffffffffffffffffffff167fddf252ad1be2c89b69c2b068fc378daa952ba7f163c4a11628f55a4df523b3ef866040518082815260200191505060405180910390a3505050505050565b6000808284019050838110156122f857600080fd5b8091505092915050565b8161230c81611b62565b61231a5761231981612492565b5b600c5461233283600b546122e390919063ffffffff16565b111561233d57600080fd5b600073ffffffffffffffffffffffffffffffffffffffff168373ffffffffffffffffffffffffffffffffffffffff16141561237757600080fd5b61238c82600b546122e390919063ffffffff16565b600b819055506123e482600160008673ffffffffffffffffffffffffffffffffffffffff1673ffffffffffffffffffffffffffffffffffffffff168152602001908152602001600020546122e390919063ffffffff16565b600160008573ffffffffffffffffffffffffffffffffffffffff1673ffffffffffffffffffffffffffffffffffffffff168152602001908152602001600020819055508273ffffffffffffffffffffffffffffffffffffffff16600073ffffffffffffffffffffffffffffffffffffffff167fddf252ad1be2c89b69c2b068fc378daa952ba7f163c4a11628f55a4df523b3ef846040518082815260200191505060405180910390a3505050565b600061249d826125e7565b90508173ffffffffffffffffffffffffffffffffffffffff167f51cd4b8c0225e44e87a9ab75b09c0c28e9383414d405e32028c7d578c332f6498243604051808381526020018281526020019250505060405180910390a26001600560008473ffffffffffffffffffffffffffffffffffffffff1673ffffffffffffffffffffffffffffffffffffffff16815260200190815260200160002060006101000a81548160ff021916908315150217905550816003600083815260200190815260200160002060006101000a81548173ffffffffffffffffffffffffffffffffffffffff021916908373ffffffffffffffffffffffffffffffffffffffff16021790555080600460008473ffffffffffffffffffffffffffffffffffffffff1673ffffffffffffffffffffffffffffffffffffffff168152602001908152602001600020819055505050565b6000807fffcc00000000000000000000000000000000000000000000000000000000000060001b9050657dee20b84b8863ffffffff431660a01b8417026effffffffffffffffffffffffffffff811660781b8118821791505080915050919050565b60008083141561265c576000905061267d565b600082840290508284828161266d57fe5b041461267857600080fd5b809150505b9291505056fea165627a7a7230582049f34b545c2c719752b8c48d572fbb8188642bc44b107fa186f2790052c84a690029",
  "source": "pragma solidity ^0.5.8;\n\nimport \"./SafeMath.sol\";\n\ncontract ERC20d {\n\n    using SafeMath for uint;\n\n    bytes32 constant POS = 0x506f736974697665000000000000000000000000000000000000000000000000;\n    bytes32 constant NEU = 0x4e65757472616c00000000000000000000000000000000000000000000000000;\n    bytes32 constant NEG = 0x4e65676174697665000000000000000000000000000000000000000000000000;\n\n    struct _delegate {\n        bytes32 _delegateIdentity;\n        bytes32 _positiveVotes;\n        bytes32 _negativeVotes;\n        bytes32 _neutralVotes;\n        bytes32 _totalEvents;\n        bytes32 _totalVotes;\n        bytes32 _trustLevel;\n    }\n\n    mapping (address => mapping (address => uint)) private _allowed;\n    mapping (address => uint) private _balances;\n\n    mapping (bytes32 => _delegate) private _stats;\n    mapping (bytes32 => address) private _wallet;\n    mapping (address => bytes32) private _vID;\n    mapping (address => bool) private _active;\n    mapping (address => bool) private _stake;\n    mapping (bytes32 => uint) private _trust;\n    mapping (bytes32 => bool) private _voted;\n\n    address private _founder = msg.sender;\n    address private _admin = address(0x0);\n\n    uint private _totalSupply;\n    uint private _maxSupply;\n    uint private _decimals;\n\n    string private _name;\n    string private _symbol;\n\n    modifier _stakeCheck(address _from , address _to) {\n        require(!isStaking(_from) && !isStaking(_to));\n        _;\n    }\n\n    modifier _verifyID(address _account) {\n        if(!isActive(_account)) createID(_account);\n        _;\n    }\n\n    modifier _trustLimit(bytes32 _id) {\n        require(_trust[_id] < block.number);\n        _;\n    }\n\n    modifier _onlyAdmin() {\n        require(msg.sender == _admin);\n        _;\n    }\n\n    modifier _onlyFounder() {\n        require(msg.sender == _founder);\n        _;\n    }\n\n    constructor() public {\n        // 50,600,000,000 VLDY - Max supply\n        // 48,070,000,000 VLDY - Initial supply\n        //  2,530,000,000 VLDY - Delegation supply\n        uint genesis = uint(48070000000).mul(10**uint(18));\n        _maxSupply = uint(50600000000).mul(10**uint(18));\n        _mint(_founder, genesis);\n        _name = \"Validity\";\n        _symbol = \"VLDY\";\n        _decimals = 18;\n    }\n\n    function toggleStake() public {\n        require(!isVoted(getvID(msg.sender)));\n        require(isActive(msg.sender));\n\n        _stake[msg.sender] = !_stake[msg.sender];\n        emit Stake(msg.sender);\n    }\n\n    function setIdentity(bytes32 _identity) public {\n        require(isActive(msg.sender));\n\n        _stats[getvID(msg.sender)]._delegateIdentity = _identity;\n    }\n\n    function name() public view returns (string memory) {\n        return _name;\n    }\n\n    function symbol() public view returns (string memory) {\n        return _symbol;\n    }\n\n    function decimals() public view returns (uint) {\n        return _decimals;\n    }\n\n    function maxSupply() public view returns (uint) {\n        return _maxSupply;\n    }\n\n    function totalSupply() public view returns (uint) {\n        return _totalSupply;\n    }\n\n    function isVoted(bytes32 _id)  public view returns (bool) {\n        return _voted[_id];\n    }\n\n    function isActive(address _account)  public view returns (bool) {\n        return _active[_account];\n    }\n\n    function isStaking(address _account)  public view returns (bool) {\n        return _stake[_account];\n    }\n\n    function balanceOf(address _owner) public view returns (uint) {\n        return _balances[_owner];\n    }\n\n    function getvID(address _account) public view returns (bytes32) {\n        return _vID[_account];\n    }\n\n    function getIdentity(bytes32 _id) public view returns (bytes32) {\n         return _stats[_id]._delegateIdentity;\n    }\n\n    function getAddress(bytes32 _id) public view returns (address) {\n        return _wallet[_id];\n    }\n\n    function trustLevel(bytes32 _id) public view returns (uint) {\n        return uint(_stats[_id]._trustLevel);\n    }\n\n    function totalEvents(bytes32 _id) public view returns (uint) {\n        return uint(_stats[_id]._totalEvents);\n    }\n\n    function totalVotes(bytes32 _id) public view returns (uint) {\n        return uint(_stats[_id]._totalVotes);\n    }\n\n    function positiveVotes(bytes32 _id) public view returns (uint) {\n        return uint(_stats[_id]._positiveVotes);\n    }\n\n    function negativeVotes(bytes32 _id) public view returns (uint) {\n        return uint(_stats[_id]._negativeVotes);\n    }\n\n     function neutralVotes(bytes32 _id) public view returns (uint) {\n        return uint(_stats[_id]._neutralVotes);\n    }\n\n    function allowance(address _owner, address _spender) public view returns (uint) {\n        return _allowed[_owner][_spender];\n    }\n\n    function transfer(address _to, uint _value) public returns (bool) {\n        _transfer(msg.sender, _to, _value);\n        return true;\n    }\n\n    function approve(address _spender, uint _value) public returns (bool) {\n        require(_allowed[msg.sender][_spender] == uint(0));\n        require(_spender != address(0x0));\n\n        _allowed[msg.sender][_spender] = _value;\n        emit Approval(msg.sender, _spender, _value);\n        return true;\n    }\n\n    function _mint(address _account, uint _value) _verifyID(_account) private {\n        require(_totalSupply.add(_value) <= _maxSupply);\n        require(_account != address(0x0));\n\n        _totalSupply = _totalSupply.add(_value);\n        _balances[_account] = _balances[_account].add(_value);\n        emit Transfer(address(0x0), _account, _value);\n    }\n\n    function transferFrom(address _from, address _to, uint _value) public returns (bool) {\n        _allowed[_from][msg.sender] = _allowed[_from][msg.sender].sub(_value);\n        _transfer(_from, _to, _value);\n        emit Approval(_from, msg.sender, _allowed[_from][msg.sender]);\n        return true;\n    }\n\n    function increaseAllowance(address _spender, uint _addedValue) public returns (bool) {\n        require(_spender != address(0x0));\n\n        _allowed[msg.sender][_spender] = _allowed[msg.sender][_spender].add(_addedValue);\n        emit Approval(msg.sender, _spender, _allowed[msg.sender][_spender]);\n        return true;\n    }\n\n    function decreaseAllowance(address _spender, uint _subtractedValue) public returns (bool) {\n        require(_spender != address(0x0));\n\n        _allowed[msg.sender][_spender] = _allowed[msg.sender][_spender].sub(_subtractedValue);\n        emit Approval(msg.sender, _spender, _allowed[msg.sender][_spender]);\n        return true;\n    }\n\n     function _transfer(address _from, address _to, uint _value) _stakeCheck(_from, _to) _verifyID(_to) internal {\n        require(_to != address(0x0));\n\n        _balances[_from] = _balances[_from].sub(_value);\n        _balances[_to] = _balances[_to].add(_value);\n        emit Transfer(_from, _to, _value);\n    }\n\n    function delegationReward(bytes32 _id, address _account, uint _reward) _onlyAdmin public {\n        require(isStaking(_account));\n        require(isVoted(_id));\n\n        _voted[_id] = false;\n        _stake[_account] = false;\n        _mint(_account, _reward);\n        emit Reward(_id, _reward);\n    }\n\n    function delegationEvent(bytes32 _id, bytes32 _subject, bytes32 _choice, uint _weight) _onlyAdmin public {\n        require(_choice == POS || _choice == NEU || _choice == NEG);\n        require(isStaking(getAddress(_id)));\n        require(!isVoted(_id));\n\n        _voted[_id] = true;\n        _delegate storage x = _stats[_id];\n        if(_choice == POS) {\n            x._positiveVotes = bytes32(positiveVotes(_id).add(_weight));\n        } else if(_choice == NEU) {\n            x._neutralVotes = bytes32(neutralVotes(_id).add(_weight));\n        } else if(_choice == NEG) {\n            x._negativeVotes = bytes32(negativeVotes(_id).add(_weight));\n        }\n        x._totalVotes = bytes32(totalVotes(_id).add(_weight));\n        x._totalEvents = bytes32(totalEvents(_id).add(1));\n        emit Vote(_id, _subject, _choice, _weight);\n    }\n\n    function valdiationGeneration(address _account) private view returns (bytes32) {\n        bytes32 id = 0xffcc000000000000000000000000000000000000000000000000000000000000;\n        assembly {\n            let product := mul(or(_account, shl(0xa0, and(number, 0xffffffff))), 0x7dee20b84b88)\n            id := or(id, xor(product, shl(0x78, and(product, 0xffffffffffffffffffffffffffffff))))\n        }\n        return id;\n     }\n\n    function increaseTrust(bytes32 _id) _trustLimit(_id) _onlyAdmin public {\n        _stats[_id]._trustLevel = bytes32(trustLevel(_id).add(1));\n        _trust[_id] = block.number.add(1000);\n        emit Trust(_id, POS);\n    }\n\n    function decreaseTrust(bytes32 _id) _trustLimit(_id) _onlyAdmin public {\n        _stats[_id]._trustLevel = bytes32(trustLevel(_id).add(1));\n        _trust[_id] = block.number.add(1000);\n        emit Trust(_id, NEG);\n    }\n\n    function adminControl(address _entity) _onlyFounder public {\n        _admin = _entity;\n    }\n\n    function createID(address _account) internal {\n         bytes32 id = valdiationGeneration(_account);\n         emit Neo(_account, id, block.number);\n         _active[_account] = true;\n         _wallet[id] = _account;\n         _vID[_account] = id;\n    }\n\n    event Approval(address indexed owner, address indexed spender, uint value);\n\n    event Transfer(address indexed from, address indexed to, uint value);\n\n    event Vote(bytes32 vID, bytes32 subject, bytes32 choice, uint weight);\n\n    event Neo(address indexed subject, bytes32 vID, uint block);\n\n    event Reward(bytes32 vID, uint reward);\n\n    event Trust(bytes32 vID, bytes32 flux);\n\n    event Stake(address indexed staker);\n\n}\n",
  "sourcePath": "/Users/OSX/Desktop/erc20d/contracts/ERC20d.sol",
  "compiler": {
    "name": "solc",
    "version": "0.5.8+commit.23d335f2.Emscripten.clang"
  },
  "schemaVersion": "3.0.11",
  "updatedAt": "2019-06-14T21:10:56.970Z",
  "devdoc": {
    "methods": {}
  },
  "userdoc": {
    "methods": {}
  }
}