{
  "contractName": "ERC20d",
  "abi": [
    {
      "inputs": [],
      "payable": false,
      "stateMutability": "nonpayable",
      "type": "constructor"
    },
    {
      "anonymous": false,
      "inputs": [
        {
          "indexed": true,
          "name": "owner",
          "type": "address"
        },
        {
          "indexed": true,
          "name": "spender",
          "type": "address"
        },
        {
          "indexed": false,
          "name": "value",
          "type": "uint256"
        }
      ],
      "name": "Approval",
      "type": "event"
    },
    {
      "anonymous": false,
      "inputs": [
        {
          "indexed": true,
          "name": "from",
          "type": "address"
        },
        {
          "indexed": true,
          "name": "to",
          "type": "address"
        },
        {
          "indexed": false,
          "name": "value",
          "type": "uint256"
        }
      ],
      "name": "Transfer",
      "type": "event"
    },
    {
      "anonymous": false,
      "inputs": [
        {
          "indexed": false,
          "name": "id",
          "type": "bytes32"
        },
        {
          "indexed": false,
          "name": "subject",
          "type": "bytes32"
        },
        {
          "indexed": false,
          "name": "choice",
          "type": "bytes32"
        },
        {
          "indexed": false,
          "name": "weight",
          "type": "uint256"
        }
      ],
      "name": "Vote",
      "type": "event"
    },
    {
      "anonymous": false,
      "inputs": [
        {
          "indexed": true,
          "name": "delegate",
          "type": "address"
        },
        {
          "indexed": false,
          "name": "id",
          "type": "bytes32"
        },
        {
          "indexed": false,
          "name": "block",
          "type": "uint256"
        }
      ],
      "name": "Neo",
      "type": "event"
    },
    {
      "anonymous": false,
      "inputs": [
        {
          "indexed": false,
          "name": "id",
          "type": "bytes32"
        },
        {
          "indexed": false,
          "name": "change",
          "type": "bytes32"
        }
      ],
      "name": "Trust",
      "type": "event"
    },
    {
      "anonymous": false,
      "inputs": [
        {
          "indexed": false,
          "name": "id",
          "type": "bytes32"
        },
        {
          "indexed": false,
          "name": "reward",
          "type": "uint256"
        }
      ],
      "name": "Reward",
      "type": "event"
    },
    {
      "anonymous": false,
      "inputs": [
        {
          "indexed": true,
          "name": "delegate",
          "type": "address"
        }
      ],
      "name": "Stake",
      "type": "event"
    },
    {
      "constant": false,
      "inputs": [],
      "name": "toggleStake",
      "outputs": [],
      "payable": false,
      "stateMutability": "nonpayable",
      "type": "function"
    },
    {
      "constant": false,
      "inputs": [
        {
          "name": "_identity",
          "type": "bytes32"
        }
      ],
      "name": "setIdentity",
      "outputs": [],
      "payable": false,
      "stateMutability": "nonpayable",
      "type": "function"
    },
    {
      "constant": true,
      "inputs": [],
      "name": "name",
      "outputs": [
        {
          "name": "",
          "type": "string"
        }
      ],
      "payable": false,
      "stateMutability": "view",
      "type": "function"
    },
    {
      "constant": true,
      "inputs": [],
      "name": "symbol",
      "outputs": [
        {
          "name": "",
          "type": "string"
        }
      ],
      "payable": false,
      "stateMutability": "view",
      "type": "function"
    },
    {
      "constant": true,
      "inputs": [],
      "name": "decimals",
      "outputs": [
        {
          "name": "",
          "type": "uint256"
        }
      ],
      "payable": false,
      "stateMutability": "view",
      "type": "function"
    },
    {
      "constant": true,
      "inputs": [],
      "name": "maxSupply",
      "outputs": [
        {
          "name": "",
          "type": "uint256"
        }
      ],
      "payable": false,
      "stateMutability": "view",
      "type": "function"
    },
    {
      "constant": true,
      "inputs": [],
      "name": "totalSupply",
      "outputs": [
        {
          "name": "",
          "type": "uint256"
        }
      ],
      "payable": false,
      "stateMutability": "view",
      "type": "function"
    },
    {
      "constant": true,
      "inputs": [
        {
          "name": "_id",
          "type": "bytes32"
        }
      ],
      "name": "isVoted",
      "outputs": [
        {
          "name": "",
          "type": "bool"
        }
      ],
      "payable": false,
      "stateMutability": "view",
      "type": "function"
    },
    {
      "constant": true,
      "inputs": [
        {
          "name": "_account",
          "type": "address"
        }
      ],
      "name": "isActive",
      "outputs": [
        {
          "name": "",
          "type": "bool"
        }
      ],
      "payable": false,
      "stateMutability": "view",
      "type": "function"
    },
    {
      "constant": true,
      "inputs": [
        {
          "name": "_account",
          "type": "address"
        }
      ],
      "name": "isStaking",
      "outputs": [
        {
          "name": "",
          "type": "bool"
        }
      ],
      "payable": false,
      "stateMutability": "view",
      "type": "function"
    },
    {
      "constant": true,
      "inputs": [
        {
          "name": "_owner",
          "type": "address"
        }
      ],
      "name": "balanceOf",
      "outputs": [
        {
          "name": "",
          "type": "uint256"
        }
      ],
      "payable": false,
      "stateMutability": "view",
      "type": "function"
    },
    {
      "constant": true,
      "inputs": [
        {
          "name": "_account",
          "type": "address"
        }
      ],
      "name": "validityId",
      "outputs": [
        {
          "name": "",
          "type": "bytes32"
        }
      ],
      "payable": false,
      "stateMutability": "view",
      "type": "function"
    },
    {
      "constant": true,
      "inputs": [
        {
          "name": "_id",
          "type": "bytes32"
        }
      ],
      "name": "getIdentity",
      "outputs": [
        {
          "name": "",
          "type": "bytes32"
        }
      ],
      "payable": false,
      "stateMutability": "view",
      "type": "function"
    },
    {
      "constant": true,
      "inputs": [
        {
          "name": "_id",
          "type": "bytes32"
        }
      ],
      "name": "getAddress",
      "outputs": [
        {
          "name": "",
          "type": "address"
        }
      ],
      "payable": false,
      "stateMutability": "view",
      "type": "function"
    },
    {
      "constant": true,
      "inputs": [
        {
          "name": "_id",
          "type": "bytes32"
        }
      ],
      "name": "viability",
      "outputs": [
        {
          "name": "",
          "type": "uint256"
        }
      ],
      "payable": false,
      "stateMutability": "view",
      "type": "function"
    },
    {
      "constant": true,
      "inputs": [
        {
          "name": "_id",
          "type": "bytes32"
        }
      ],
      "name": "totalEvents",
      "outputs": [
        {
          "name": "",
          "type": "uint256"
        }
      ],
      "payable": false,
      "stateMutability": "view",
      "type": "function"
    },
    {
      "constant": true,
      "inputs": [
        {
          "name": "_id",
          "type": "bytes32"
        }
      ],
      "name": "totalVotes",
      "outputs": [
        {
          "name": "",
          "type": "uint256"
        }
      ],
      "payable": false,
      "stateMutability": "view",
      "type": "function"
    },
    {
      "constant": true,
      "inputs": [
        {
          "name": "_id",
          "type": "bytes32"
        }
      ],
      "name": "positiveVotes",
      "outputs": [
        {
          "name": "",
          "type": "uint256"
        }
      ],
      "payable": false,
      "stateMutability": "view",
      "type": "function"
    },
    {
      "constant": true,
      "inputs": [
        {
          "name": "_id",
          "type": "bytes32"
        }
      ],
      "name": "negativeVotes",
      "outputs": [
        {
          "name": "",
          "type": "uint256"
        }
      ],
      "payable": false,
      "stateMutability": "view",
      "type": "function"
    },
    {
      "constant": true,
      "inputs": [
        {
          "name": "_id",
          "type": "bytes32"
        }
      ],
      "name": "neutralVotes",
      "outputs": [
        {
          "name": "",
          "type": "uint256"
        }
      ],
      "payable": false,
      "stateMutability": "view",
      "type": "function"
    },
    {
      "constant": true,
      "inputs": [
        {
          "name": "_owner",
          "type": "address"
        },
        {
          "name": "_spender",
          "type": "address"
        }
      ],
      "name": "allowance",
      "outputs": [
        {
          "name": "",
          "type": "uint256"
        }
      ],
      "payable": false,
      "stateMutability": "view",
      "type": "function"
    },
    {
      "constant": false,
      "inputs": [
        {
          "name": "_to",
          "type": "address"
        },
        {
          "name": "_value",
          "type": "uint256"
        }
      ],
      "name": "transfer",
      "outputs": [
        {
          "name": "",
          "type": "bool"
        }
      ],
      "payable": false,
      "stateMutability": "nonpayable",
      "type": "function"
    },
    {
      "constant": false,
      "inputs": [
        {
          "name": "_spender",
          "type": "address"
        },
        {
          "name": "_value",
          "type": "uint256"
        }
      ],
      "name": "approve",
      "outputs": [
        {
          "name": "",
          "type": "bool"
        }
      ],
      "payable": false,
      "stateMutability": "nonpayable",
      "type": "function"
    },
    {
      "constant": false,
      "inputs": [
        {
          "name": "_from",
          "type": "address"
        },
        {
          "name": "_to",
          "type": "address"
        },
        {
          "name": "_value",
          "type": "uint256"
        }
      ],
      "name": "transferFrom",
      "outputs": [
        {
          "name": "",
          "type": "bool"
        }
      ],
      "payable": false,
      "stateMutability": "nonpayable",
      "type": "function"
    },
    {
      "constant": false,
      "inputs": [
        {
          "name": "_spender",
          "type": "address"
        },
        {
          "name": "_addedValue",
          "type": "uint256"
        }
      ],
      "name": "increaseAllowance",
      "outputs": [
        {
          "name": "",
          "type": "bool"
        }
      ],
      "payable": false,
      "stateMutability": "nonpayable",
      "type": "function"
    },
    {
      "constant": false,
      "inputs": [
        {
          "name": "_spender",
          "type": "address"
        },
        {
          "name": "_subtractedValue",
          "type": "uint256"
        }
      ],
      "name": "decreaseAllowance",
      "outputs": [
        {
          "name": "",
          "type": "bool"
        }
      ],
      "payable": false,
      "stateMutability": "nonpayable",
      "type": "function"
    },
    {
      "constant": false,
      "inputs": [
        {
          "name": "_id",
          "type": "bytes32"
        },
        {
          "name": "_account",
          "type": "address"
        },
        {
          "name": "_reward",
          "type": "uint256"
        }
      ],
      "name": "validationReward",
      "outputs": [],
      "payable": false,
      "stateMutability": "nonpayable",
      "type": "function"
    },
    {
      "constant": false,
      "inputs": [
        {
          "name": "_id",
          "type": "bytes32"
        },
        {
          "name": "_subject",
          "type": "bytes32"
        },
        {
          "name": "_choice",
          "type": "bytes32"
        },
        {
          "name": "_weight",
          "type": "uint256"
        }
      ],
      "name": "validationEvent",
      "outputs": [],
      "payable": false,
      "stateMutability": "nonpayable",
      "type": "function"
    },
    {
      "constant": false,
      "inputs": [
        {
          "name": "_id",
          "type": "bytes32"
        }
      ],
      "name": "increaseViability",
      "outputs": [],
      "payable": false,
      "stateMutability": "nonpayable",
      "type": "function"
    },
    {
      "constant": false,
      "inputs": [
        {
          "name": "_id",
          "type": "bytes32"
        }
      ],
      "name": "decreaseViability",
      "outputs": [],
      "payable": false,
      "stateMutability": "nonpayable",
      "type": "function"
    },
    {
      "constant": false,
      "inputs": [],
      "name": "conformIdentity",
      "outputs": [],
      "payable": false,
      "stateMutability": "nonpayable",
      "type": "function"
    },
    {
      "constant": false,
      "inputs": [
        {
          "name": "_entity",
          "type": "address"
        }
      ],
      "name": "adminControl",
      "outputs": [],
      "payable": false,
      "stateMutability": "nonpayable",
      "type": "function"
    }
  ],
  "bytecode": "0x608060405233600460006101000a81548173ffffffffffffffffffffffffffffffffffffffff021916908373ffffffffffffffffffffffffffffffffffffffff1602179055506000600560006101000a81548173ffffffffffffffffffffffffffffffffffffffff021916908373ffffffffffffffffffffffffffffffffffffffff1602179055503480156200009457600080fd5b506000620000ba6012600a0a640ae5cb9f40620001c460201b620022111790919060201c565b9050620000df6012600a0a640bc7feba00620001c460201b620022111790919060201c565b60078190555062000119600460009054906101000a900473ffffffffffffffffffffffffffffffffffffffff16826200020260201b60201c565b6040518060400160405280600881526020017f56616c69646974790000000000000000000000000000000000000000000000008152506009908051906020019062000166929190620003b0565b506040518060400160405280600481526020017f564c445900000000000000000000000000000000000000000000000000000000815250600a9080519060200190620001b4929190620003b0565b506012600881905550506200045f565b600080831415620001d95760009050620001fc565b6000828402905082848281620001eb57fe5b0414620001f757600080fd5b809150505b92915050565b60075462000221826006546200039060201b6200207b1790919060201c565b11156200022d57600080fd5b600073ffffffffffffffffffffffffffffffffffffffff168273ffffffffffffffffffffffffffffffffffffffff1614156200026857600080fd5b62000284816006546200039060201b6200207b1790919060201c565b600681905550620002e381600160008573ffffffffffffffffffffffffffffffffffffffff1673ffffffffffffffffffffffffffffffffffffffff168152602001908152602001600020546200039060201b6200207b1790919060201c565b600160008473ffffffffffffffffffffffffffffffffffffffff1673ffffffffffffffffffffffffffffffffffffffff168152602001908152602001600020819055508173ffffffffffffffffffffffffffffffffffffffff16600073ffffffffffffffffffffffffffffffffffffffff167fddf252ad1be2c89b69c2b068fc378daa952ba7f163c4a11628f55a4df523b3ef836040518082815260200191505060405180910390a35050565b600080828401905083811015620003a657600080fd5b8091505092915050565b828054600181600116156101000203166002900490600052602060002090601f016020900481019282601f10620003f357805160ff191683800117855562000424565b8280016001018555821562000424579182015b828111156200042357825182559160200191906001019062000406565b5b50905062000433919062000437565b5090565b6200045c91905b80821115620004585760008160009055506001016200043e565b5090565b90565b612277806200046f6000396000f3fe608060405234801561001057600080fd5b50600436106101f05760003560e01c80636fef43301161010f578063a457c2d7116100a2578063cc7d4d5311610071578063cc7d4d5314610a41578063d5abeb0114610a83578063dd62ed3e14610aa1578063f71b6a2514610b19576101f0565b8063a457c2d7146108f1578063a786721214610957578063a9059cbb14610999578063b51b9127146109ff576101f0565b8063927103ac116100de578063927103ac1461078c57806395d89b41146107ba5780639f8a13d71461083d578063a16f189e14610899576101f0565b80636fef4330146106a657806370a08231146106b0578063778e96c0146107085780637d7e938a1461074a576101f0565b8063313ce56711610187578063562c281111610156578063562c2811146105785780636292f05f146105d057806367cdd1fb1461061c5780636f49712b1461064a576101f0565b8063313ce5671461046e57806333bf35771461048c57806339509351146104d057806340e01b5514610536576101f0565b8063198bfb55116101c3578063198bfb551461034257806321f8a7211461037057806323b872dd146103de5780632f43fbe314610464576101f0565b806306fdde03146101f5578063095ea7b3146102785780631163fd2d146102de57806318160ddd14610324575b600080fd5b6101fd610b5b565b6040518080602001828103825283818151815260200191508051906020019080838360005b8381101561023d578082015181840152602081019050610222565b50505050905090810190601f16801561026a5780820380516001836020036101000a031916815260200191505b509250505060405180910390f35b6102c46004803603604081101561028e57600080fd5b81019080803573ffffffffffffffffffffffffffffffffffffffff16906020019092919080359060200190929190505050610bfd565b604051808215151515815260200191505060405180910390f35b61030a600480360360208110156102f457600080fd5b8101908080359060200190929190505050610c14565b604051808215151515815260200191505060405180910390f35b61032c610c41565b6040518082815260200191505060405180910390f35b61036e6004803603602081101561035857600080fd5b8101908080359060200190929190505050610c4b565b005b61039c6004803603602081101561038657600080fd5b8101908080359060200190929190505050610c83565b604051808273ffffffffffffffffffffffffffffffffffffffff1673ffffffffffffffffffffffffffffffffffffffff16815260200191505060405180910390f35b61044a600480360360608110156103f457600080fd5b81019080803573ffffffffffffffffffffffffffffffffffffffff169060200190929190803573ffffffffffffffffffffffffffffffffffffffff16906020019092919080359060200190929190505050610cc3565b604051808215151515815260200191505060405180910390f35b61046c610d73565b005b610476610ee3565b6040518082815260200191505060405180910390f35b6104ce600480360360208110156104a257600080fd5b81019080803573ffffffffffffffffffffffffffffffffffffffff169060200190929190505050610eed565b005b61051c600480360360408110156104e657600080fd5b81019080803573ffffffffffffffffffffffffffffffffffffffff16906020019092919080359060200190929190505050610f8b565b604051808215151515815260200191505060405180910390f35b6105626004803603602081101561054c57600080fd5b810190808035906020019092919050505061102f565b6040518082815260200191505060405180910390f35b6105ba6004803603602081101561058e57600080fd5b81019080803573ffffffffffffffffffffffffffffffffffffffff169060200190929190505050611052565b6040518082815260200191505060405180910390f35b61061a600480360360808110156105e657600080fd5b810190808035906020019092919080359060200190929190803590602001909291908035906020019092919050505061109e565b005b6106486004803603602081101561063257600080fd5b8101908080359060200190929190505050611397565b005b61068c6004803603602081101561066057600080fd5b81019080803573ffffffffffffffffffffffffffffffffffffffff1690602001909291905050506114e9565b604051808215151515815260200191505060405180910390f35b6106ae611542565b005b6106f2600480360360208110156106c657600080fd5b81019080803573ffffffffffffffffffffffffffffffffffffffff169060200190929190505050611664565b6040518082815260200191505060405180910390f35b6107346004803603602081101561071e57600080fd5b81019080803590602001909291905050506116ad565b6040518082815260200191505060405180910390f35b6107766004803603602081101561076057600080fd5b81019080803590602001909291905050506116d0565b6040518082815260200191505060405180910390f35b6107b8600480360360208110156107a257600080fd5b81019080803590602001909291905050506116f3565b005b6107c2611845565b6040518080602001828103825283818151815260200191508051906020019080838360005b838110156108025780820151818401526020810190506107e7565b50505050905090810190601f16801561082f5780820380516001836020036101000a031916815260200191505b509250505060405180910390f35b61087f6004803603602081101561085357600080fd5b81019080803573ffffffffffffffffffffffffffffffffffffffff1690602001909291905050506118e7565b604051808215151515815260200191505060405180910390f35b6108ef600480360360608110156108af57600080fd5b8101908080359060200190929190803573ffffffffffffffffffffffffffffffffffffffff16906020019092919080359060200190929190505050611940565b005b61093d6004803603604081101561090757600080fd5b81019080803573ffffffffffffffffffffffffffffffffffffffff16906020019092919080359060200190929190505050611a96565b604051808215151515815260200191505060405180910390f35b6109836004803603602081101561096d57600080fd5b8101908080359060200190929190505050611b3a565b6040518082815260200191505060405180910390f35b6109e5600480360360408110156109af57600080fd5b81019080803573ffffffffffffffffffffffffffffffffffffffff16906020019092919080359060200190929190505050611b5a565b604051808215151515815260200191505060405180910390f35b610a2b60048036036020811015610a1557600080fd5b8101908080359060200190929190505050611b71565b6040518082815260200191505060405180910390f35b610a6d60048036036020811015610a5757600080fd5b8101908080359060200190929190505050611b94565b6040518082815260200191505060405180910390f35b610a8b611bb7565b6040518082815260200191505060405180910390f35b610b0360048036036040811015610ab757600080fd5b81019080803573ffffffffffffffffffffffffffffffffffffffff169060200190929190803573ffffffffffffffffffffffffffffffffffffffff169060200190929190505050611bc1565b6040518082815260200191505060405180910390f35b610b4560048036036020811015610b2f57600080fd5b8101908080359060200190929190505050611c47565b6040518082815260200191505060405180910390f35b606060098054600181600116156101000203166002900480601f016020809104026020016040519081016040528092919081815260200182805460018160011615610100020316600290048015610bf35780601f10610bc857610100808354040283529160200191610bf3565b820191906000526020600020905b815481529060010190602001808311610bd657829003601f168201915b5050505050905090565b6000610c0a338484611c6a565b6001905092915050565b60006002600083815260200190815260200160002060090160009054906101000a900460ff169050919050565b6000600654905090565b610c54336118e7565b610c5d57600080fd5b8060026000610c6b33611052565b81526020019081526020016000206001018190555050565b60006002600083815260200190815260200160002060000160009054906101000a900473ffffffffffffffffffffffffffffffffffffffff169050919050565b6000610d5d8433610d58856000808a73ffffffffffffffffffffffffffffffffffffffff1673ffffffffffffffffffffffffffffffffffffffff16815260200190815260200160002060003373ffffffffffffffffffffffffffffffffffffffff1673ffffffffffffffffffffffffffffffffffffffff16815260200190815260200160002054611dc890919063ffffffff16565b611c6a565b610d68848484611de8565b600190509392505050565b610d7c336118e7565b15610d8657600080fd5b6000610d9133612019565b905080600360003373ffffffffffffffffffffffffffffffffffffffff1673ffffffffffffffffffffffffffffffffffffffff16815260200190815260200160002060000181905550336002600083815260200190815260200160002060000160006101000a81548173ffffffffffffffffffffffffffffffffffffffff021916908373ffffffffffffffffffffffffffffffffffffffff1602179055506001600360003373ffffffffffffffffffffffffffffffffffffffff1673ffffffffffffffffffffffffffffffffffffffff16815260200190815260200160002060010160006101000a81548160ff0219169083151502179055503373ffffffffffffffffffffffffffffffffffffffff167f51cd4b8c0225e44e87a9ab75b09c0c28e9383414d405e32028c7d578c332f6498243604051808381526020018281526020019250505060405180910390a250565b6000600854905090565b600460009054906101000a900473ffffffffffffffffffffffffffffffffffffffff1673ffffffffffffffffffffffffffffffffffffffff163373ffffffffffffffffffffffffffffffffffffffff1614610f4757600080fd5b80600560006101000a81548173ffffffffffffffffffffffffffffffffffffffff021916908373ffffffffffffffffffffffffffffffffffffffff16021790555050565b60006110253384611020856000803373ffffffffffffffffffffffffffffffffffffffff1673ffffffffffffffffffffffffffffffffffffffff16815260200190815260200160002060008973ffffffffffffffffffffffffffffffffffffffff1673ffffffffffffffffffffffffffffffffffffffff1681526020019081526020016000205461207b90919063ffffffff16565b611c6a565b6001905092915050565b6000600260008381526020019081526020016000206003015460001c9050919050565b6000600360008373ffffffffffffffffffffffffffffffffffffffff1673ffffffffffffffffffffffffffffffffffffffff168152602001908152602001600020600001549050919050565b600560009054906101000a900473ffffffffffffffffffffffffffffffffffffffff1673ffffffffffffffffffffffffffffffffffffffff163373ffffffffffffffffffffffffffffffffffffffff16146110f857600080fd5b7f506f73697469766500000000000000000000000000000000000000000000000060001b82148061114b57507f4e65757472616c0000000000000000000000000000000000000000000000000060001b82145b8061117857507f4e6567617469766500000000000000000000000000000000000000000000000060001b82145b61118157600080fd5b61119261118d85610c83565b6114e9565b61119b57600080fd5b6111a484610c14565b156111ae57600080fd5b60016002600086815260200190815260200160002060090160006101000a81548160ff02191690831515021790555060006002600086815260200190815260200160002090507f506f73697469766500000000000000000000000000000000000000000000000060001b83141561124a5761123a8261122c876116ad565b61207b90919063ffffffff16565b60001b81600401819055506112f4565b7f4e65757472616c0000000000000000000000000000000000000000000000000060001b8314156112a0576112908261128287611b71565b61207b90919063ffffffff16565b60001b81600601819055506112f3565b7f4e6567617469766500000000000000000000000000000000000000000000000060001b8314156112f2576112e6826112d887611c47565b61207b90919063ffffffff16565b60001b81600501819055505b5b5b61130f8261130187611b94565b61207b90919063ffffffff16565b60001b81600801819055506113366001611328876116d0565b61207b90919063ffffffff16565b60001b81600701819055507ff9a0f45f5b0ee4b0e0d35afcbb2331423679429ed104c6f80a230e870867439a858585856040518085815260200184815260200183815260200182815260200194505050505060405180910390a15050505050565b600560009054906101000a900473ffffffffffffffffffffffffffffffffffffffff1673ffffffffffffffffffffffffffffffffffffffff163373ffffffffffffffffffffffffffffffffffffffff16146113f157600080fd5b8043600260008381526020019081526020016000206002015460001c111561141857600080fd5b61142d6103e84361207b90919063ffffffff16565b60001b600260008481526020019081526020016000206002018190555061146660016114588461102f565b61207b90919063ffffffff16565b60001b60026000848152602001908152602001600020600301819055507fb2e24cfbc75d5fb0929555ddbfbfa6cdcb0012c0efe56ceba8062989cf7835ef827f506f73697469766500000000000000000000000000000000000000000000000060001b604051808381526020018281526020019250505060405180910390a15050565b6000600360008373ffffffffffffffffffffffffffffffffffffffff1673ffffffffffffffffffffffffffffffffffffffff16815260200190815260200160002060010160019054906101000a900460ff169050919050565b61155361154e33611052565b610c14565b1561155d57600080fd5b611566336118e7565b61156f57600080fd5b6000600360003373ffffffffffffffffffffffffffffffffffffffff1673ffffffffffffffffffffffffffffffffffffffff16815260200190815260200160002060010160019054906101000a900460ff1690508015600360003373ffffffffffffffffffffffffffffffffffffffff1673ffffffffffffffffffffffffffffffffffffffff16815260200190815260200160002060010160016101000a81548160ff0219169083151502179055503373ffffffffffffffffffffffffffffffffffffffff167f8c000936ed6cc8b0c4218956860faac1c834b4ec96b46fa995aa58fc097fea1660405160405180910390a250565b6000600160008373ffffffffffffffffffffffffffffffffffffffff1673ffffffffffffffffffffffffffffffffffffffff168152602001908152602001600020549050919050565b6000600260008381526020019081526020016000206004015460001c9050919050565b6000600260008381526020019081526020016000206007015460001c9050919050565b600560009054906101000a900473ffffffffffffffffffffffffffffffffffffffff1673ffffffffffffffffffffffffffffffffffffffff163373ffffffffffffffffffffffffffffffffffffffff161461174d57600080fd5b8043600260008381526020019081526020016000206002015460001c111561177457600080fd5b6117896103e84361207b90919063ffffffff16565b60001b60026000848152602001908152602001600020600201819055506117c260016117b48461102f565b611dc890919063ffffffff16565b60001b60026000848152602001908152602001600020600301819055507fb2e24cfbc75d5fb0929555ddbfbfa6cdcb0012c0efe56ceba8062989cf7835ef827f4e6567617469766500000000000000000000000000000000000000000000000060001b604051808381526020018281526020019250505060405180910390a15050565b6060600a8054600181600116156101000203166002900480601f0160208091040260200160405190810160405280929190818152602001828054600181600116156101000203166002900480156118dd5780601f106118b2576101008083540402835291602001916118dd565b820191906000526020600020905b8154815290600101906020018083116118c057829003601f168201915b5050505050905090565b6000600360008373ffffffffffffffffffffffffffffffffffffffff1673ffffffffffffffffffffffffffffffffffffffff16815260200190815260200160002060010160009054906101000a900460ff169050919050565b600560009054906101000a900473ffffffffffffffffffffffffffffffffffffffff1673ffffffffffffffffffffffffffffffffffffffff163373ffffffffffffffffffffffffffffffffffffffff161461199a57600080fd5b6119a3826114e9565b6119ac57600080fd5b6119b583610c14565b6119be57600080fd5b6000600360008473ffffffffffffffffffffffffffffffffffffffff1673ffffffffffffffffffffffffffffffffffffffff16815260200190815260200160002060010160016101000a81548160ff02191690831515021790555060006002600085815260200190815260200160002060090160006101000a81548160ff021916908315150217905550611a52828261209a565b7f7d7096f40a1fe42c26368b620dcd0eee1ac687fd1de7459e6838086d37572bda8382604051808381526020018281526020019250505060405180910390a1505050565b6000611b303384611b2b856000803373ffffffffffffffffffffffffffffffffffffffff1673ffffffffffffffffffffffffffffffffffffffff16815260200190815260200160002060008973ffffffffffffffffffffffffffffffffffffffff1673ffffffffffffffffffffffffffffffffffffffff16815260200190815260200160002054611dc890919063ffffffff16565b611c6a565b6001905092915050565b600060026000838152602001908152602001600020600101549050919050565b6000611b67338484611de8565b6001905092915050565b6000600260008381526020019081526020016000206006015460001c9050919050565b6000600260008381526020019081526020016000206008015460001c9050919050565b6000600754905090565b60008060008473ffffffffffffffffffffffffffffffffffffffff1673ffffffffffffffffffffffffffffffffffffffff16815260200190815260200160002060008373ffffffffffffffffffffffffffffffffffffffff1673ffffffffffffffffffffffffffffffffffffffff16815260200190815260200160002054905092915050565b6000600260008381526020019081526020016000206005015460001c9050919050565b600073ffffffffffffffffffffffffffffffffffffffff168273ffffffffffffffffffffffffffffffffffffffff161415611ca457600080fd5b600073ffffffffffffffffffffffffffffffffffffffff168373ffffffffffffffffffffffffffffffffffffffff161415611cde57600080fd5b806000808573ffffffffffffffffffffffffffffffffffffffff1673ffffffffffffffffffffffffffffffffffffffff16815260200190815260200160002060008473ffffffffffffffffffffffffffffffffffffffff1673ffffffffffffffffffffffffffffffffffffffff168152602001908152602001600020819055508173ffffffffffffffffffffffffffffffffffffffff168373ffffffffffffffffffffffffffffffffffffffff167f8c5be1e5ebec7d5bd14f71427d1e84f3dd0314c0f7b2291e5b200ac8c7c3b925836040518082815260200191505060405180910390a3505050565b600082821115611dd757600080fd5b600082840390508091505092915050565b8282611df3826114e9565b158015611e065750611e04816114e9565b155b611e0f57600080fd5b600073ffffffffffffffffffffffffffffffffffffffff168573ffffffffffffffffffffffffffffffffffffffff161415611e4957600080fd5b600073ffffffffffffffffffffffffffffffffffffffff168473ffffffffffffffffffffffffffffffffffffffff161415611e8357600080fd5b611ed583600160008873ffffffffffffffffffffffffffffffffffffffff1673ffffffffffffffffffffffffffffffffffffffff16815260200190815260200160002054611dc890919063ffffffff16565b600160008773ffffffffffffffffffffffffffffffffffffffff1673ffffffffffffffffffffffffffffffffffffffff16815260200190815260200160002081905550611f6a83600160008773ffffffffffffffffffffffffffffffffffffffff1673ffffffffffffffffffffffffffffffffffffffff1681526020019081526020016000205461207b90919063ffffffff16565b600160008673ffffffffffffffffffffffffffffffffffffffff1673ffffffffffffffffffffffffffffffffffffffff168152602001908152602001600020819055508373ffffffffffffffffffffffffffffffffffffffff168573ffffffffffffffffffffffffffffffffffffffff167fddf252ad1be2c89b69c2b068fc378daa952ba7f163c4a11628f55a4df523b3ef856040518082815260200191505060405180910390a35050505050565b6000807fffcc00000000000000000000000000000000000000000000000000000000000060001b9050657dee20b84b8863ffffffff431660a01b8417026effffffffffffffffffffffffffffff811660781b8118821791505080915050919050565b60008082840190508381101561209057600080fd5b8091505092915050565b6007546120b28260065461207b90919063ffffffff16565b11156120bd57600080fd5b600073ffffffffffffffffffffffffffffffffffffffff168273ffffffffffffffffffffffffffffffffffffffff1614156120f757600080fd5b61210c8160065461207b90919063ffffffff16565b60068190555061216481600160008573ffffffffffffffffffffffffffffffffffffffff1673ffffffffffffffffffffffffffffffffffffffff1681526020019081526020016000205461207b90919063ffffffff16565b600160008473ffffffffffffffffffffffffffffffffffffffff1673ffffffffffffffffffffffffffffffffffffffff168152602001908152602001600020819055508173ffffffffffffffffffffffffffffffffffffffff16600073ffffffffffffffffffffffffffffffffffffffff167fddf252ad1be2c89b69c2b068fc378daa952ba7f163c4a11628f55a4df523b3ef836040518082815260200191505060405180910390a35050565b6000808314156122245760009050612245565b600082840290508284828161223557fe5b041461224057600080fd5b809150505b9291505056fea165627a7a723058200dafbf26b29eba37a437f99bf452a8d40d36f715d57752eb5e51ce96f7d6dd550029",
  "source": "pragma solidity ^0.5.8;\n\nimport \"./SafeMath.sol\";\n\ncontract ERC20d {\n\n    // Author ::: Samuel JJ Gosling\n    // Usage ::: Governance\n    // Entity ::: Validity\n\n    using SafeMath for uint;\n\n    bytes32 constant POS = 0x506f736974697665000000000000000000000000000000000000000000000000;\n    bytes32 constant NEU = 0x4e65757472616c00000000000000000000000000000000000000000000000000;\n    bytes32 constant NEG = 0x4e65676174697665000000000000000000000000000000000000000000000000;\n\n    struct userObject {\n        bytes32 _validationIdentifier;\n        bool _validationStatus;\n        bool _stakingStatus;\n    }\n\n    struct delegateObject {\n        address _delegateAddress;\n        bytes32 _delegateIdentity;\n        bytes32 _viabilityLimit;\n        bytes32 _viabilityRank;\n        bytes32 _positiveVotes;\n        bytes32 _negativeVotes;\n        bytes32 _neutralVotes;\n        bytes32 _totalEvents;\n        bytes32 _totalVotes;\n        bool _votingStatus;\n    }\n\n    mapping (address => mapping (address => uint)) private _allowed;\n    mapping (address => uint) private _balances;\n\n    mapping (bytes32 => delegateObject) private validationData;\n    mapping (address => userObject) private validationUser;\n\n    address private _founder = msg.sender;\n    address private _admin = address(0x0);\n\n    uint private _totalSupply;\n    uint private _maxSupply;\n    uint private _decimals;\n\n    string private _name;\n    string private _symbol;\n\n    modifier _viabilityLimit(bytes32 _id) {\n        require(uint(validationData[_id]._viabilityLimit) <= block.number);\n        _;\n    }\n\n    modifier _stakeCheck(address _from, address _to) {\n        require(!isStaking(_from) && !isStaking(_to));\n        _;\n    }\n\n    modifier _onlyAdmin() {\n        require(msg.sender == _admin);\n        _;\n    }\n\n    modifier _onlyFounder() {\n        require(msg.sender == _founder);\n        _;\n    }\n\n    constructor() public {\n        //  Max supply (100%) ::: 50,600,000,000 VLDY\n        //  Genesis supply (92.5%) ::: 46,805,000,000 VLDY\n        //  Validation supply (7.5%) ::: 3,795,000,000 VLDY\n        uint genesis = uint(46805000000).mul(10**uint(18));\n        _maxSupply = uint(50600000000).mul(10**uint(18));\n        _mint(_founder, genesis);\n        _name = \"Validity\";\n        _symbol = \"VLDY\";\n        _decimals = 18;\n    }\n\n    function toggleStake() public {\n        require(!isVoted(validityId(msg.sender)));\n        require(isActive(msg.sender));\n\n        bool currentState = validationUser[msg.sender]._stakingStatus;\n        validationUser[msg.sender]._stakingStatus = !currentState;\n        emit Stake(msg.sender);\n    }\n\n    function setIdentity(bytes32 _identity) public {\n        require(isActive(msg.sender));\n\n        validationData[validityId(msg.sender)]._delegateIdentity = _identity;\n    }\n\n    function name() public view returns (string memory) {\n        return _name;\n    }\n\n    function symbol() public view returns (string memory) {\n        return _symbol;\n    }\n\n    function decimals() public view returns (uint) {\n        return _decimals;\n    }\n\n    function maxSupply() public view returns (uint) {\n        return _maxSupply;\n    }\n\n    function totalSupply() public view returns (uint) {\n        return _totalSupply;\n    }\n\n    function isVoted(bytes32 _id) public view returns (bool) {\n        return validationData[_id]._votingStatus;\n    }\n\n    function isActive(address _account) public view returns (bool) {\n        return validationUser[_account]._validationStatus;\n    }\n\n    function isStaking(address _account) public view returns (bool) {\n        return validationUser[_account]._stakingStatus;\n    }\n\n    function balanceOf(address _owner) public view returns (uint) {\n        return _balances[_owner];\n    }\n\n    function validityId(address _account) public view returns (bytes32) {\n        return validationUser[_account]._validationIdentifier;\n    }\n\n    function getIdentity(bytes32 _id) public view returns (bytes32) {\n        return validationData[_id]._delegateIdentity;\n    }\n\n    function getAddress(bytes32 _id) public view returns (address) {\n        return validationData[_id]._delegateAddress;\n    }\n\n    function viability(bytes32 _id) public view returns (uint) {\n        return uint(validationData[_id]._viabilityRank);\n    }\n\n    function totalEvents(bytes32 _id) public view returns (uint) {\n        return uint(validationData[_id]._totalEvents);\n    }\n\n    function totalVotes(bytes32 _id) public view returns (uint) {\n        return uint(validationData[_id]._totalVotes);\n    }\n\n    function positiveVotes(bytes32 _id) public view returns (uint) {\n        return uint(validationData[_id]._positiveVotes);\n    }\n\n    function negativeVotes(bytes32 _id) public view returns (uint) {\n        return uint(validationData[_id]._negativeVotes);\n    }\n\n    function neutralVotes(bytes32 _id) public view returns (uint) {\n        return uint(validationData[_id]._neutralVotes);\n    }\n\n    function allowance(address _owner, address _spender) public view returns (uint) {\n        return _allowed[_owner][_spender];\n    }\n\n    function transfer(address _to, uint _value) public returns (bool) {\n        _transfer(msg.sender, _to, _value);\n        return true;\n    }\n\n    function approve(address _spender, uint _value) public returns (bool) {\n        _approve(msg.sender, _spender, _value);\n        return true;\n    }\n\n    function transferFrom(address _from, address _to, uint _value) public returns (bool) {\n        _approve(_from, msg.sender, _allowed[_from][msg.sender].sub(_value));\n        _transfer(_from, _to, _value);\n        return true;\n    }\n\n    function increaseAllowance(address _spender, uint _addedValue) public returns (bool) {\n        _approve(msg.sender, _spender, _allowed[msg.sender][_spender].add(_addedValue));\n        return true;\n    }\n\n    function decreaseAllowance(address _spender, uint _subtractedValue) public returns (bool) {\n        _approve(msg.sender, _spender, _allowed[msg.sender][_spender].sub(_subtractedValue));\n        return true;\n    }\n\n    function _transfer(address _from, address _to, uint _value) internal _stakeCheck(_from, _to) {\n        require(_from != address(0x0));\n        require(_to != address(0x0));\n\n        _balances[_from] = _balances[_from].sub(_value);\n        _balances[_to] = _balances[_to].add(_value);\n        emit Transfer(_from, _to, _value);\n    }\n\n    function _approve(address _owner, address _spender, uint _value) internal {\n        require(_spender != address(0x0));\n        require(_owner != address(0x0));\n\n        _allowed[_owner][_spender] = _value;\n        emit Approval(_owner, _spender, _value);\n    }\n\n    function _mint(address _account, uint _value) private {\n        require(_totalSupply.add(_value) <= _maxSupply);\n        require(_account != address(0x0));\n\n        _totalSupply = _totalSupply.add(_value);\n        _balances[_account] = _balances[_account].add(_value);\n        emit Transfer(address(0x0), _account, _value);\n    }\n\n    function validationReward(bytes32 _id, address _account, uint _reward) public _onlyAdmin {\n        require(isStaking(_account));\n        require(isVoted(_id));\n\n        validationUser[_account]._stakingStatus = false;\n        validationData[_id]._votingStatus = false;\n        _mint(_account, _reward);\n        emit Reward(_id, _reward);\n    }\n\n    function validationEvent(bytes32 _id, bytes32 _subject, bytes32 _choice, uint _weight) public _onlyAdmin {\n        require(_choice == POS || _choice == NEU || _choice == NEG);\n        require(isStaking(getAddress(_id)));\n        require(!isVoted(_id));\n\n        validationData[_id]._votingStatus = true;\n        delegateObject storage x = validationData[_id];\n        if(_choice == POS) {\n            x._positiveVotes = bytes32(positiveVotes(_id).add(_weight));\n        } else if(_choice == NEU) {\n            x._neutralVotes = bytes32(neutralVotes(_id).add(_weight));\n        } else if(_choice == NEG) {\n            x._negativeVotes = bytes32(negativeVotes(_id).add(_weight));\n        }\n        x._totalVotes = bytes32(totalVotes(_id).add(_weight));\n        x._totalEvents = bytes32(totalEvents(_id).add(1));\n        emit Vote(_id, _subject, _choice, _weight);\n    }\n\n    function validationGeneration(address _account) internal view returns (bytes32) {\n        bytes32 id = 0xffcc000000000000000000000000000000000000000000000000000000000000;\n        assembly {\n            let product := mul(or(_account, shl(0xa0, and(number, 0xffffffff))), 0x7dee20b84b88)\n            id := or(id, xor(product, shl(0x78, and(product, 0xffffffffffffffffffffffffffffff))))\n        }\n        return id;\n    }\n\n    function increaseViability(bytes32 _id) public _onlyAdmin  _viabilityLimit(_id) {\n        validationData[_id]._viabilityLimit = bytes32(block.number.add(1000));\n        validationData[_id]._viabilityRank = bytes32(viability(_id).add(1));\n        emit Trust(_id, POS);\n    }\n\n    function decreaseViability(bytes32 _id) public _onlyAdmin _viabilityLimit(_id) {\n        validationData[_id]._viabilityLimit = bytes32(block.number.add(1000));\n        validationData[_id]._viabilityRank = bytes32(viability(_id).sub(1));\n        emit Trust(_id, NEG);\n    }\n\n    function conformIdentity() public {\n        require(!isActive(msg.sender));\n\n        bytes32 neophyteDelegate = validationGeneration(msg.sender);\n        validationUser[msg.sender]._validationIdentifier = neophyteDelegate;\n        validationData[neophyteDelegate]._delegateAddress = msg.sender;\n        validationUser[msg.sender]._validationStatus = true;\n        emit Neo(msg.sender, neophyteDelegate, block.number);\n    }\n\n    function adminControl(address _entity) public _onlyFounder {\n        _admin = _entity;\n    }\n\n    event Approval(address indexed owner, address indexed spender, uint value);\n    event Transfer(address indexed from, address indexed to, uint value);\n    event Vote(bytes32 id, bytes32 subject, bytes32 choice, uint weight);\n    event Neo(address indexed delegate, bytes32 id, uint block);\n    event Trust(bytes32 id, bytes32 change);\n    event Reward(bytes32 id, uint reward);\n    event Stake(address indexed delegate);\n    \n}\n",
  "sourcePath": "/Users/gozzy/Desktop/erc20d/contracts/ERC20d.sol",
  "compiler": {
    "name": "solc",
    "version": "0.5.8+commit.23d335f2.Emscripten.clang"
  },
  "schemaVersion": "3.0.11",
  "updatedAt": "2019-08-18T21:53:25.077Z",
  "devdoc": {
    "methods": {}
  },
  "userdoc": {
    "methods": {}
  }
}